{
  "contractName": "VendingMachine",
  "abi": [
    {
      "inputs": [],
      "stateMutability": "nonpayable",
      "type": "constructor"
    },
    {
      "inputs": [
        {
          "internalType": "address",
          "name": "",
          "type": "address"
        }
      ],
      "name": "balances",
      "outputs": [
        {
          "internalType": "uint256",
          "name": "",
          "type": "uint256"
        }
      ],
      "stateMutability": "view",
      "type": "function",
      "constant": true
    },
    {
      "inputs": [],
      "name": "owner",
      "outputs": [
        {
          "internalType": "address",
          "name": "",
          "type": "address"
        }
      ],
      "stateMutability": "view",
      "type": "function",
      "constant": true
    },
    {
      "inputs": [],
      "name": "getMachineBalance",
      "outputs": [
        {
          "internalType": "uint256",
          "name": "",
          "type": "uint256"
        }
      ],
      "stateMutability": "view",
      "type": "function",
      "constant": true
    },
    {
      "inputs": [
        {
          "internalType": "uint256",
          "name": "amount",
          "type": "uint256"
        }
      ],
      "name": "restockMachine",
      "outputs": [],
      "stateMutability": "nonpayable",
      "type": "function"
    },
    {
      "inputs": [
        {
          "internalType": "uint256",
          "name": "amount",
          "type": "uint256"
        }
      ],
      "name": "purchase",
      "outputs": [],
      "stateMutability": "payable",
      "type": "function",
      "payable": true
    }
  ],
  "bytecode": "0x608060405234801561001057600080fd5b50336000806101000a81548173ffffffffffffffffffffffffffffffffffffffff021916908373ffffffffffffffffffffffffffffffffffffffff1602179055506064600160003073ffffffffffffffffffffffffffffffffffffffff1673ffffffffffffffffffffffffffffffffffffffff168152602001908152602001600020819055506107c3806100a56000396000f3fe60806040526004361061004a5760003560e01c806327e235e31461004f5780638da5cb5b1461008c57806390711f1a146100b7578063ddd4be0b146100e0578063efef39a11461010b575b600080fd5b34801561005b57600080fd5b506100766004803603810190610071919061047b565b610127565b60405161008391906104c1565b60405180910390f35b34801561009857600080fd5b506100a161013f565b6040516100ae91906104eb565b60405180910390f35b3480156100c357600080fd5b506100de60048036038101906100d99190610532565b610163565b005b3480156100ec57600080fd5b506100f561024a565b60405161010291906104c1565b60405180910390f35b61012560048036038101906101209190610532565b610291565b005b60016020528060005260406000206000915090505481565b60008054906101000a900473ffffffffffffffffffffffffffffffffffffffff1681565b60008054906101000a900473ffffffffffffffffffffffffffffffffffffffff1673ffffffffffffffffffffffffffffffffffffffff163373ffffffffffffffffffffffffffffffffffffffff16146101f1576040517f08c379a00000000000000000000000000000000000000000000000000000000081526004016101e8906105bc565b60405180910390fd5b80600160003073ffffffffffffffffffffffffffffffffffffffff1673ffffffffffffffffffffffffffffffffffffffff1681526020019081526020016000206000828254610240919061060b565b9250508190555050565b6000600160003073ffffffffffffffffffffffffffffffffffffffff1673ffffffffffffffffffffffffffffffffffffffff16815260200190815260200160002054905090565b600160003073ffffffffffffffffffffffffffffffffffffffff1673ffffffffffffffffffffffffffffffffffffffff16815260200190815260200160002054811115610313576040517f08c379a000000000000000000000000000000000000000000000000000000000815260040161030a9061068b565b60405180910390fd5b671bc16d674ec800008161032791906106ab565b341015610369576040517f08c379a000000000000000000000000000000000000000000000000000000000815260040161036090610739565b60405180910390fd5b80600160003073ffffffffffffffffffffffffffffffffffffffff1673ffffffffffffffffffffffffffffffffffffffff16815260200190815260200160002060008282546103b89190610759565b9250508190555080600160003373ffffffffffffffffffffffffffffffffffffffff1673ffffffffffffffffffffffffffffffffffffffff168152602001908152602001600020600082825461040e919061060b565b9250508190555050565b600080fd5b600073ffffffffffffffffffffffffffffffffffffffff82169050919050565b60006104488261041d565b9050919050565b6104588161043d565b811461046357600080fd5b50565b6000813590506104758161044f565b92915050565b60006020828403121561049157610490610418565b5b600061049f84828501610466565b91505092915050565b6000819050919050565b6104bb816104a8565b82525050565b60006020820190506104d660008301846104b2565b92915050565b6104e58161043d565b82525050565b600060208201905061050060008301846104dc565b92915050565b61050f816104a8565b811461051a57600080fd5b50565b60008135905061052c81610506565b92915050565b60006020828403121561054857610547610418565b5b60006105568482850161051d565b91505092915050565b600082825260208201905092915050565b7f596f7520617265206e6f7420746865206f776e65722100000000000000000000600082015250565b60006105a660168361055f565b91506105b182610570565b602082019050919050565b600060208201905081810360008301526105d581610599565b9050919050565b7f4e487b7100000000000000000000000000000000000000000000000000000000600052601160045260246000fd5b6000610616826104a8565b9150610621836104a8565b9250828201905080821115610639576106386105dc565b5b92915050565b7f546865726520617265206e6f7420656e6f75676820646f6e7574732100000000600082015250565b6000610675601c8361055f565b91506106808261063f565b602082019050919050565b600060208201905081810360008301526106a481610668565b9050919050565b60006106b6826104a8565b91506106c1836104a8565b92508282026106cf816104a8565b915082820484148315176106e6576106e56105dc565b5b5092915050565b7f796f75206d75737420706179206174206c656173742032206574682100000000600082015250565b6000610723601c8361055f565b915061072e826106ed565b602082019050919050565b6000602082019050818103600083015261075281610716565b9050919050565b6000610764826104a8565b915061076f836104a8565b9250828203905081811115610787576107866105dc565b5b9291505056fea26469706673582212200aa9611943677c45149c525f3bc8d51a13ca5303e36a94464e7f593ec177f8f764736f6c63430008110033",
  "immutableReferences": {},
  "source": "// SPDX-License-Identifier: MIT\r\npragma solidity ^0.8.17;\r\n\r\ncontract VendingMachine {\r\n    address public owner;\r\n    mapping(address => uint256) public balances;\r\n\r\n    constructor() {\r\n        owner = msg.sender;\r\n        balances[address(this)] = 100;\r\n    }\r\n\r\n    function getMachineBalance() public view returns (uint256) {\r\n        return balances[address(this)];\r\n    }\r\n\r\n    function restockMachine(uint256 amount) public {\r\n        require(msg.sender == owner, \"You are not the owner!\");\r\n        balances[address(this)] += amount;\r\n    }\r\n\r\n    function purchase(uint256 amount) public payable {\r\n        require(\r\n            amount <= balances[address(this)],\r\n            \"There are not enough donuts!\"\r\n        );\r\n        require(msg.value >= amount * 2 ether, \"you must pay at least 2 eth!\");\r\n\r\n        balances[address(this)] -= amount;\r\n        balances[msg.sender] += amount;\r\n    }\r\n}\r\n",
  "sourcePath": "C:\\projects\\BC\\vending-machine-ethers\\truffle\\contracts\\VendingMachine.sol",
  "compiler": {
    "name": "solc",
    "version": "0.8.17+commit.8df45f5f.Emscripten.clang"
  },
  "schemaVersion": "3.4.10",
  "updatedAt": "2022-11-03T08:30:35.379Z",
  "networkType": "ethereum",
  "devdoc": {
    "kind": "dev",
    "methods": {},
    "version": 1
  },
  "userdoc": {
    "kind": "user",
    "methods": {},
    "version": 1
  }
}