{
  "contractName": "VendingMachine",
  "abi": [
    {
      "inputs": [],
      "stateMutability": "nonpayable",
      "type": "constructor"
    },
    {
      "inputs": [
        {
          "internalType": "address",
          "name": "",
          "type": "address"
        }
      ],
      "name": "balances",
      "outputs": [
        {
          "internalType": "uint256",
          "name": "",
          "type": "uint256"
        }
      ],
      "stateMutability": "view",
      "type": "function",
      "constant": true
    },
    {
      "inputs": [],
      "name": "owner",
      "outputs": [
        {
          "internalType": "address",
          "name": "",
          "type": "address"
        }
      ],
      "stateMutability": "view",
      "type": "function",
      "constant": true
    },
    {
      "inputs": [],
      "name": "getVendingMachineBalance",
      "outputs": [
        {
          "internalType": "uint256",
          "name": "",
          "type": "uint256"
        }
      ],
      "stateMutability": "view",
      "type": "function",
      "constant": true
    },
    {
      "inputs": [
        {
          "internalType": "uint256",
          "name": "amount",
          "type": "uint256"
        }
      ],
      "name": "restockVendingMachine",
      "outputs": [],
      "stateMutability": "nonpayable",
      "type": "function"
    },
    {
      "inputs": [
        {
          "internalType": "uint256",
          "name": "amount",
          "type": "uint256"
        }
      ],
      "name": "purchase",
      "outputs": [],
      "stateMutability": "payable",
      "type": "function",
      "payable": true
    }
  ],
  "bytecode": "0x608060405234801561001057600080fd5b50336000806101000a81548173ffffffffffffffffffffffffffffffffffffffff021916908373ffffffffffffffffffffffffffffffffffffffff1602179055506064600160003073ffffffffffffffffffffffffffffffffffffffff1673ffffffffffffffffffffffffffffffffffffffff1681526020019081526020016000208190555061087a806100a56000396000f3fe60806040526004361061004a5760003560e01c806327e235e31461004f5780638da5cb5b1461008c5780639225c763146100b7578063e7644d34146100e0578063efef39a11461010b575b600080fd5b34801561005b57600080fd5b506100766004803603810190610071919061050c565b610127565b6040516100839190610552565b60405180910390f35b34801561009857600080fd5b506100a161013f565b6040516100ae919061057c565b60405180910390f35b3480156100c357600080fd5b506100de60048036038101906100d991906105c3565b610163565b005b3480156100ec57600080fd5b506100f561024a565b6040516101029190610552565b60405180910390f35b610125600480360381019061012091906105c3565b610291565b005b60016020528060005260406000206000915090505481565b60008054906101000a900473ffffffffffffffffffffffffffffffffffffffff1681565b60008054906101000a900473ffffffffffffffffffffffffffffffffffffffff1673ffffffffffffffffffffffffffffffffffffffff163373ffffffffffffffffffffffffffffffffffffffff16146101f1576040517f08c379a00000000000000000000000000000000000000000000000000000000081526004016101e89061064d565b60405180910390fd5b80600160003073ffffffffffffffffffffffffffffffffffffffff1673ffffffffffffffffffffffffffffffffffffffff1681526020019081526020016000206000828254610240919061069c565b9250508190555050565b6000600160003073ffffffffffffffffffffffffffffffffffffffff1673ffffffffffffffffffffffffffffffffffffffff16815260200190815260200160002054905090565b671bc16d674ec80000816102a591906106d0565b3410156102e7576040517f08c379a00000000000000000000000000000000000000000000000000000000081526004016102de90610784565b60405180910390fd5b600160003073ffffffffffffffffffffffffffffffffffffffff1673ffffffffffffffffffffffffffffffffffffffff16815260200190815260200160002054811115610369576040517f08c379a0000000000000000000000000000000000000000000000000000000008152600401610360906107f0565b60405180910390fd5b6000670de0b6b3a7640000671bc16d674ec800008361038891906106d0565b670de0b6b3a76400003461039c91906106d0565b6103a69190610810565b6103b091906106d0565b90503373ffffffffffffffffffffffffffffffffffffffff166108fc829081150290604051600060405180830381858888f193505050501580156103f8573d6000803e3d6000fd5b5081600160003073ffffffffffffffffffffffffffffffffffffffff1673ffffffffffffffffffffffffffffffffffffffff16815260200190815260200160002060008282546104489190610810565b9250508190555081600160003373ffffffffffffffffffffffffffffffffffffffff1673ffffffffffffffffffffffffffffffffffffffff168152602001908152602001600020600082825461049e919061069c565b925050819055505050565b600080fd5b600073ffffffffffffffffffffffffffffffffffffffff82169050919050565b60006104d9826104ae565b9050919050565b6104e9816104ce565b81146104f457600080fd5b50565b600081359050610506816104e0565b92915050565b600060208284031215610522576105216104a9565b5b6000610530848285016104f7565b91505092915050565b6000819050919050565b61054c81610539565b82525050565b60006020820190506105676000830184610543565b92915050565b610576816104ce565b82525050565b6000602082019050610591600083018461056d565b92915050565b6105a081610539565b81146105ab57600080fd5b50565b6000813590506105bd81610597565b92915050565b6000602082840312156105d9576105d86104a9565b5b60006105e7848285016105ae565b91505092915050565b600082825260208201905092915050565b7f596f7520617265206e6f7420746865206f776e65722100000000000000000000600082015250565b60006106376016836105f0565b915061064282610601565b602082019050919050565b600060208201905081810360008301526106668161062a565b9050919050565b7f4e487b7100000000000000000000000000000000000000000000000000000000600052601160045260246000fd5b60006106a782610539565b91506106b283610539565b92508282019050808211156106ca576106c961066d565b5b92915050565b60006106db82610539565b91506106e683610539565b92508282026106f481610539565b9150828204841483151761070b5761070a61066d565b5b5092915050565b7f596f75206d75737420706179206174206c65617374203220657468657220706560008201527f7220646f6e757400000000000000000000000000000000000000000000000000602082015250565b600061076e6027836105f0565b915061077982610712565b604082019050919050565b6000602082019050818103600083015261079d81610761565b9050919050565b7f6e6f7420656e6f75676820646f6e75747320696e2073746f636b000000000000600082015250565b60006107da601a836105f0565b91506107e5826107a4565b602082019050919050565b60006020820190508181036000830152610809816107cd565b9050919050565b600061081b82610539565b915061082683610539565b925082820390508181111561083e5761083d61066d565b5b9291505056fea2646970667358221220b4568cabe058a7ae06ae078faa5bf4a83a4f01af022143ed8a014a426a5dde2f64736f6c63430008110033",
  "immutableReferences": {},
  "source": "// SPDX-License-Identifier: MIT\r\npragma solidity ^0.8.17;\r\n\r\ncontract VendingMachine {\r\n    address public owner;\r\n    mapping (address => uint ) public balances;\r\n\r\n    constructor(){\r\n        owner = msg.sender;\r\n        balances[address(this)] = 100;\r\n    }\r\n    \r\n    function getVendingMachineBalance() public view returns (uint){\r\n        return balances[address(this)];\r\n    }\r\n\r\n    function restockVendingMachine(uint amount) public {\r\n        require(msg.sender == owner, \"You are not the owner!\");\r\n        balances[address(this)] += amount;\r\n    }\r\n\r\n    function purchase(uint amount) public payable {\r\n        require(msg.value >= amount * 2 ether, \"You must pay at least 2 ether per donut\");\r\n        require(amount <= balances[address(this)], \"not enough donuts in stock\");\r\n\r\n        uint excess = (msg.value * 1 ether - amount*2 ether) * 1 ether;\r\n        payable(msg.sender).transfer(excess);\r\n        balances[address(this)] -= amount;\r\n        balances[msg.sender] += amount;\r\n    }\r\n\r\n}\r\n\r\n",
  "sourcePath": "C:\\projects\\BC\\vending-machine-truffle\\contracts\\VendingMachine.sol",
  "compiler": {
    "name": "solc",
    "version": "0.8.17+commit.8df45f5f.Emscripten.clang"
  },
  "schemaVersion": "3.4.10",
  "updatedAt": "2022-10-27T18:26:27.992Z",
  "networkType": "ethereum",
  "devdoc": {
    "kind": "dev",
    "methods": {},
    "version": 1
  },
  "userdoc": {
    "kind": "user",
    "methods": {},
    "version": 1
  }
}